:0600000000008031102811
:100008007E14803120007F08E4008E311326200002
:100018006408FF007E1009008031122865308400D2
:10002800003085000B30FE000030FF009231EE22D8
:1000380080312100C101C201C301C401C501C6014B
:10004800C701C0308400013085002230FE00003036
:10005800FF009231EE228031A43084009230850076
:10006800C8308600003087000030FF00073092312A
:10007800E22280311430840093308500E23086001B
:10008800013087000030FF000E309231E2227E10EE
:1000980020008A31132A2000C801210049082000C5
:1000A800D700210048082000D600560886005708C7
:1000B8008700413106300106031D062956088600CF
:1000C8005708870080300106031D06295608860058
:1000D800570887004231403FBD00413FBE003E08FF
:1000E800BF003F08D10056088600570887004231F4
:1000F8000108BD003D08D2005103031D9F288C3024
:10010800B0008530B1008C3084008530850000084F
:10011800BD00BE013D08B2003E08B3005608860087
:10012800570887004631403FB400413FB50087314A
:100138006F278031102B023020005106031DD42870
:1001480052080319AB289231CE228031102B20009F
:100158005235CD3E86008701403FCA00413FCB0063
:100168004B08B1004A08B0004B08BE004A08BD0061
:1001780002303D0784003E0803183E0A8500003F10
:10018800B200013FB3005608860057088700463181
:10019800403FB400413FB50087316F278031102BB5
:1001A800033020005106031D02295330BD003D08CD
:1001B800F00052088831F520803171082000CD0008
:1001C8007008CC00CD1FEC289231CE228031102B44
:1001D80020005408B1005308B0004D08B3004C0883
:1001E800B20056088600570887004631403FB400E1
:1001F800413FB50087316F278031102B9231CE22D5
:100208008031102B2000560886005708870041319E
:1002180005300106031D1F29EA01EA0A560886006F
:100228005708870042310108BD003D08E9009231B6
:10023800AB228031102B2000560886005708870013
:10024800413109300106031D3E295608860057082A
:10025800870042310108BD003D08C6008E31F726EF
:1002680080319231AB22803120004608BD003D0824
:10027800EF00102B560886005708870041310830D8
:100288000106031D5C296F30B0000030B100013059
:10029800B2000030B3005608860057088700463180
:1002A800403FB400413FB50087316F278031102BA4
:1002B8002000560886005708870041310108031DB1
:1002C800ED29560886005708870001081F39003AAB
:1002D800031D8529C001C1014030B0000030B100C4
:1002E8000230B2000030B300560886005708870075
:1002F8004631403FB400413FB50087316F27803118
:10030800102B2000560886005708870001081F395F
:10031800023A031DE9295608860057088700443128
:1003280001080F39BD003D08CE0002304E02031807
:10033800E5290730BD003D08F0004E0893315223EF
:100348008031063EE23E8600013087000108200029
:10035800BE003E08CF005608860057088700443183
:10036800403FBD00413FBE00BD1BBD294F080139BC
:10037800BF294F080239BD00BE013D08C4003E0830
:10038800C500440845040319CB290130CC290030A5
:10039800BD003D08C200C3014230B0000030B100CA
:1003A8000230B2000030B3005608860057088700B4
:1003B8004631403FB400413FB50087316F27803157
:1003C800102B9231CE228031102B9231CE228031E7
:1003D800102B2000560886005708870041310B3043
:1003E8000106031DFB299231AB228031102B20001E
:1003F800560886005708870041310A300106031D58
:100408001B2AC7014730B0000030B1000130B200EC
:100418000030B30056088600570887004631403F31
:10042800B400413FB50087316F278031102B200081
:1004380056088600570887004131010303192D2A01
:100448005608860057088700413103300106031D0E
:100458000E2BC901C90A56088600570887000108EB
:100468001F39023A031D032B5608860057088700D8
:10047800423116000104031D032B56088600570855
:100488008700443101080F39BD003D08D5005608E2
:10049800860057088700443101088039BD003D08AF
:1004A800D000023055020318032B5608860057085F
:1004B8008700413103300106031D702A50080319D3
:1004C8006A2A5508943168248031012B2000550888
:1004D800943182248031012B200050080319B32A5B
:1004E8000730BD003D08F000550893315223803194
:1004F800053EE23E86000130870001082000BE006C
:100508005535BF000130BF35FF3E031D872A3F35F3
:10051800053E203E860087013E0881005535BD0016
:100528000130BD35FF3E031D952A3D35043E203E72
:10053800860087018101F730BD000730BE003E0804
:10054800F0005508933152238031063EE23E860082
:100558000130870020003D088105FD30F02A073072
:10056800BD003D08F0005508933152238031043E08
:10057800E23E86000130870001082000BE005535A4
:10058800BF000130BF35FF3E031DC62A3F35013E7F
:10059800203E860087013E0881008830BD00553521
:1005A800BE000130BE35FF3E031DD62A3E35203E33
:1005B800860087013D0881000730BD003D08F00036
:1005C8005508933152238031063EE23E86000130C1
:1005D80087000115FE302000BD000730BE003E0830
:1005E800F0005508933152238031063EE23E8600E2
:1005F8000130870020003D0881052000C901490815
:10060800031D0A2B9231AB228031102B9231CE225E
:100618008031102BC801C8032000480808000730A3
:1006280021004406031D2F2B4708A1004608A000FF
:100638004130A2008630A3000730A4000030A50096
:10064800893139218331210020082104031D2F2BF2
:10065800923187220800083021004406031D4B2BE5
:100668004708A1004608A0001030A2008630A30069
:100678000830A4000030A5008931392183312100D8
:1006880020082104031D4B2B9231822208000E30D2
:1006980021004406031D672B4708A1004608A00057
:1006A800AC30A2008530A3000E30A4000030A500B5
:1006B800893139218331210020082104031D672B4A
:1006C8009231912208000D3021004406031D832B2E
:1006D8004708A1004608A000C930A2008530A30041
:1006E8000D30A4000030A500893139218331210063
:1006F80020082104031D832B92318C220800073027
:1007080021004406031D9F2B4708A1004608A000AE
:100718002130A2008630A3000730A4000030A500D5
:10072800893139218331210020082104031D9F2BA1
:10073800933163230800073021004406031DBB2BB7
:100748004708A1004608A0002930A2008630A3006F
:100758000730A4000030A5008931392183312100F8
:1007680020082104031DBB2B933174230800073094
:1007780021004406031DD72B4708A1004608A00006
:100788003130A2008630A3000730A4000030A50055
:10079800893139218331210020082104031DD72BF9
:1007A8009331852308000A3021004406031DF92BE4
:1007B8004708A1004608A0001930A2008630A3000F
:1007C8000730A4000030A500893139218331210088
:1007D80020082104031DF92B4608073EA900003014
:1007E800473DAA009631B826080006302100440685
:1007F800031D152C4708A1004608A0004930A20097
:100808008630A3000630A4000030A50089313921C4
:100818008331210020082104031D152C8831B220C2
:100828000800073021004406031D312C4708A100A9
:100838004608A0003930A2008630A3000730A40083
:100848000030A50089313921833121002008210495
:10085800031D312C9731522708000A302100440625
:10086800031D4D2C4708A1004608A000FB30A2003C
:100878008530A3000A30A4000030A5008931392151
:100888008331210020082104031D4D2C9531BB25FF
:100898000800113021004406031D6F2C4708A100F1
:1008A8004608A000E430A2008530A3000B30A40065
:1008B8000030A50089313921833121002008210425
:1008C800031D6F2C46080B3EAE000030473DAF00BD
:1008D800933132230800093021004406031D8B2C74
:1008E8004708A1004608A0000630A2008630A300F1
:1008F8000930A4000030A500893139218331210055
:1009080020082104031D8B2C9531DB2508001030AD
:1009180021004406031DAD2C4708A1004608A0008D
:10092800F030A2008530A3000A30A4000030A500F2
:10093800893139218331210020082104031DAD2C80
:1009480046080A3EAE000030473DAF008C313F24D8
:1009580008000C3021004406031DC92C4708A100DB
:100968004608A000D730A2008530A3000C30A400B0
:100978000030A50089313921833121002008210464
:10098800031DC92C9531FD250800133021004406AC
:10099800031DEB2C4708A1004608A000BB30A200AD
:1009A8008530A3000D30A4000030A500893139211D
:1009B8008331210020082104031DEB2C46080D3E3D
:1009C800AE000030473DAF00933142230800953117
:1009D8004225080018340334493400346E34003496
:1009E80074340034653400347234003466340034AE
:1009F8006134003463340034653400342034003406
:100A0800313400343A340334553400345334003428
:100A18004234003420340034503400346F3400340D
:100A280074340034653400346E3400347434003463
:100A3800693400346F34003473340034743400344F
:100A480061340034743400342F3400346734003493
:100A5800613400346C34003476340034613400344A
:100A68006E3400346F34003473340034743400341A
:100A780061340034743400342C3403344334003487
:100A88006F340034433400346F3400346F3400342E
:100A98004E34003420340034723400346534003469
:100AA80073340034653400346134003472340034F3
:100AB800633400346834003420340034673400343C
:100AC800723400346F3400347534003470340034B8
:100AD80009340234203400340134013402348034BF
:100AE800323409340434003400340234FF3400341E
:100AF800003402340734053481340234403400347D
:100B080001340734053401340234403400340134EC
:100B18001234013400340234003400340034083410
:100B2800A034A034023400340134003401340234D7
:100B3800033401340A34033430340034303400349C
:100B48003034003431340034043403340934043488
:100B580050344F34543445344E34543449344F347B
:100B680053345434413454344934433400345334C2
:100B7800483455344E345434433441344C3453346B
:100B880041345634453420340034473441344C34ED
:100B9800563441344E344F3453345434413454343D
:100BA8004934433400345334483455344E3454347F
:100BB800433441344C3452344534413444340034A1
:100BC8004F34463446345334453454345334413422
:100BD80056344534203400344434413443344334A7
:100BE80041344C34533445345434203400344F3475
:100BF80046344634533445345434523445344134FD
:100C080044340034443441344334433441344C3460
:100C18004734453454340034433445344C344C342C
:100C280020344F3446344634003444344134433459
:100C380053344534543420340034523441344E341F
:100C480047344534203431340034523441344E343E
:100C580047344534203432340034523441344E342D
:100C68004734453420343334003441344434433435
:100C780052344534413444340034433445344C34DC
:100C88004C3420344F344E340034443441344334EB
:100C9800433441344C3400345734413449345434A7
:100CA80000344F344B3400343F3400343D000E17C9
:100CB8002100CC01B9010230390203187D2E04301D
:100CC800B6000730B7003708A00039089331A723CA
:100CD8008631063EE23E8600013087002100360854
:100CE80081000130B6003608B90702303902031C0A
:100CF800632E2030A0000030A1000030A200A30025
:100D08001030A4000030A50094314F248631210012
:100D18004908A7004808A6008931C8218631210062
:100D280027082000A300210026082000A200083080
:100D3800A10080302100B60036082000A000210064
:100D48004B08A7004A08A6008931C821863121002E
:100D580027082000A700210026082000A600083048
:100D68002100B60036082000A500A4012100B90121
:100D7800B90A0230390203186C2F0730B60036085A
:100D8800A00039089331A7238631E23E860001305E
:100D98008700403F2100A600413FA7008931C821B4
:100DA800863121003935B7000130B735FF3E031DC4
:100DB800D92E3735023E203E860087012608C03FDF
:100DC8002708C13F0730B6003608A000390893311C
:100DD800A7238631043EE23E8600013087000108E1
:100DE8002100B7003935B8000130B835FF3E031D82
:100DF800F92E3835013E203E8600870137088100EC
:100E08008830B6003935B7000130B735FF3E031DCD
:100E1800092F3735203E86008701360881000730C4
:100E2800B6003608A00039089331A7238631023E60
:100E3800E23E860001308700403F2100A600413F86
:100E4800A7008931C821863121003935B700013022
:100E5800B735FF3E031D2C2F3735063E203E860052
:100E680087012608C03F2708C13F0730B60036086B
:100E7800A00039089331A7238631053EE23E86005B
:100E88000130870001082100B7003935B80001306A
:100E9800B835FF3E031D4C2F3835053E203E8600F1
:100EA8008701370881003935B6000130B635FF3E75
:100EB800031D5A2F3635043E203E860087018101E6
:100EC8000130B6003608B90702303902031CC12EBA
:100ED8003D000E13080000302000330208300319CB
:100EE8003202031C7C2F0830B6000030B700802F78
:100EF8003308B7003208B6003608FA007A08BC0092
:100F08003C08FA00FB0135087B02031D8D2F3408CD
:100F18007A02031C942F3508B9003408B8009B2FB7
:100F28003C08FA00FB017A08B8007B08B9003808C9
:100F3800FA007A08BC0035083302031DA52F3408CF
:100F480032020318A92F0130AA2F0030FA007A08BC
:100F5800EE0021004A0886004B0887002000300870
:100F68008400310885003C08FA0012001E00FA0BC4
:100F7800B92F20003C08FA00FB017A08300723004B
:100F8800C0007B082000313D2300C1002000330849
:100F98003502031DD12F32083402031CD72F330822
:100FA800BB003208DA2F3508BB003408BA003C0809
:100FB800FA00FB01FA09FB09FA0A0319FB0A3A08C5
:100FC8007A07E5003B087B3DE6002100CC152000B0
:100FD8003C08FA00FB017A08F6007B08F700963116
:100FE8008F2608002300C001C1012000ED01E501A2
:080FF800E601E701E801080031
:1010020020006F080800F7000730F4007408F000B1
:101012007708933152238831053EE23E8600013043
:1010220087000108F5007735F6000130F635FF3EFE
:10103200031D17287635053E203E86008701750878
:1010420081008430F4007735F5000130F535FF3E3C
:10105200031D27287535043E203E8600870174084B
:10106200810008002100A700A60122008D13923101
:101072009D22883120000D1A6B2821002708033E8B
:10108200A5002508A1002708883172208831210097
:101092002708043EA5002508A1002708013E883143
:1010A2007220883121002708053EA5002508A100ED
:1010B2002708023E8831722088312100A601A60A43
:1010C20022008D1792319D22883122008D13923198
:1010D2009D22883122008D1792319D2221002608FF
:1010E20008002100A400240886008701810121084C
:1010F2008600870181010830A2002208A3009231F4
:10110200D822883121002408860087010310810D2E
:101112002108860087010310810DFE30A2002408F9
:101122008600870122088105FE30A2002108860080
:1011320087012208810520000D1EA4282100240811
:1011420086008701011420008E1FAC28210021088F
:1011520086008701011401302100A302031908004F
:1011620080289331072388311F302100B00071306D
:10117200AF003B30AE00AE0BBC28AF0BBC28B00BAF
:10118200BC280000B1302100AE002E08A400B2300D
:10119200AF002F08A500B330B0003008A600083019
:1011A20097311C278831B4302100AE002E08A400EC
:1011B200B530AF002F08A500B630B0003008A60049
:1011C2000C3097311C278831B1302100A600003045
:1011D200A7000630AE002E08A80002308A31BC22D9
:1011E2008831953125250800F3007308031D052970
:1011F200700886008701A830C03F8530C13F0430A7
:10120200F0000030F10008007303031D1429700878
:10121200860087014030C03F8530C13F2C30F0004E
:101222000030F100080002307306031D2429700803
:10123200860087010630C03F8530C13F3A30F0005A
:101242000030F100080003307306031D34297008D2
:10125200860087019E30C03F8530C13F0A30F000D2
:101262000030F1000800FF30F000FF30F10008000C
:1012720001302100A4020030A53B240A0319250AEB
:1012820003197A2921002008840021088500120010
:101292000319592922088400230885000008A600A2
:1012A20020088400210885000008260603197129F8
:1012B20022088400230885000008A600A701A609C9
:1012C200A709A60A0319A70A200884002108850095
:1012D20000082607A00027080318270AA100080013
:1012E2000130A0070030A13D0130A2070030A33D2C
:1012F2003929A001A10108007708FB007608FA004D
:1013020020307B02003003197A02031C8D297B08EE
:10131200F7007A08F60008007B082000B0003008C9
:10132200F8007A08B0003008F90079088039B00076
:10133200B1017808B200B301B235B30D30083207FB
:10134200B4003108333DB500340835040319AB2924
:101352000130AC290030B600B7013608F00037087A
:10136200F1005030F2000030F30094319C247908EF
:101372007F3970072000B80071080318710AB9009C
:101382003808E03EF6001F30393DF7000800210022
:101392002708B5002608B4002030350200300319B2
:1013A2003402031CD9293508A7003408A600080016
:1013B2003508A8002808B2003408A8002808B3009D
:1013C20033088039A800A9013208AA00AB01AA3566
:1013D200AB0D28082A07AC0029082B3DAD002C08CC
:1013E2002D040319F6290130F7290030AE00AF01B0
:1013F2002E08A0002F08A1005030A2000030A30048
:1014020095310925210033087F392007B0002108D2
:101412000318210AB1003008E03EA6001F30313D1A
:10142200A70008008D311C258A3127001B169B1747
:101432000B178B178B31DB238A31883101208A31DC
:10144200003A03191E2A01309331CB238A31003A24
:1014520003191E2A0130933196238A31003A031D63
:101462005E2A01309331B9238A31003A031D322AB0
:10147200C6302100BF003F08A40001309631432648
:101482008A312100C0004008C40001309331DE23BC
:101492008A3121002508C2002408C10083311323A8
:1014A2008A3121004508BF00C0013F08A60040085C
:1014B200A70001308B3116238A3101308D319125FD
:1014C2008A311E2A20002108F1007108F5006C0300
:1014D200031D6E2A9231C422080020006D080319F0
:1014E20008007508F100F20166087202031D7B2AEA
:1014F20065087102031C822A6608F4006508F3007D
:10150200892A7508F100F2017108F3007208F400EB
:101512007308F1007108F6006D088600870121004A
:1015220048088400490885007608F10012001E0070
:10153200F10B972A7608F10071082000ED07760872
:10154200F100F2017108E5027208E63B083075020B
:10155200031CAF2A65086604031D0800750876029D
:101562000318B92A9231CE228A319231C42208005C
:101572009231AB2208002100AB002B08A900AA017E
:101582000530A935AA0D890BC22A2908803EAC0074
:101592001F302A3DAD002130280203180800043014
:1015A2002B02031808002D08A1002C08A00094317A
:1015B200B7248A31023021002802031C012B2100AA
:1015C2002D08A1002C08A000260884002708850009
:1015D2000008A900AA012908A2002A08A300A40160
:1015E200A40A963167268A3101302100A60700300D
:1015F200A73D0130AC070030AD3D0130A802DB2A27
:101602002D08A1002C08A0002608840027088500C8
:101612000008A900AA012908A2002A08A300A4011F
:10162200963167262300150808002100AB00200030
:101632006F080319080021002B08933196238B3180
:10164200003A031D080021002B35A8000130A835FF
:10165200FF3E031D282B2835043E203EA900290801
:10166200AC000730A8002808A0002B089331A7235C
:101672008B31063EE23E860001308700811D432BFE
:101682000130442B00302100A9002908AA002C08AF
:101692008600870181012A080319582B2608A80011
:1016A2002C0A8600870128088100C830602B260892
:1016B200A8002C0A86008701280881008830A8002B
:1016C2002C0886008701280881000830A80007300E
:1016D200A9002908A0002B089331A723063EE23E69
:1016E20086000130870021002808810608003D009D
:1016F20011109110920197018E151116111590116A
:101702009011901190119001921592161214983026
:10171200F0000E30F1000030F200F3001030F4005F
:101722000030F500943107248B313D0018169811D2
:101732001815981418102000BF01BF0A02303F028A
:101742000318CE2B3F08983EBD00BE010E30BE3DB1
:101752003D08C0003E08C1004008860041088700DD
:10176200011640088600410887008115400886005E
:10177200410887000115400886004108870081144E
:10178200400886004108870001100130BD003D0875
:10179200BF0702303F02031CA32B3D00960120002D
:1017A200EA01EF018E31F7268B319231C4222100FA
:1017B200121508003D0011109110920197018E152B
:1017C200111611159011901190119011900192150E
:1017D2009216121498302100A0000E30A1000030A1
:1017E200A200A3001030A4000030A50094314F24C1
:1017F2008B313D00181698111815981418102100F5
:10180200BC01BC0A02303C020318322C3C08983E50
:10181200BA00BB010E30BB3D3A08BD003B08BE001A
:101822003D0886003E08870001163D0886003E08F6
:10183200870081153D0886003E08870001153D0896
:1018420086003E08870081143D0886003E08870016
:1018520001100130BA003A08BC0702303C02031CF6
:10186200072C3D0096012000EA01EF0186315A263D
:101872008B318731F62721001215080021002F082D
:10188200A7002E08A6000630B0003008A8000230DB
:101892008A31BC228C3121002E0884002F08850059
:1018A2000008B0003008A4002F08B2002E08B100D2
:1018B20001303107840032080318320A850000081B
:1018C200B3003308A5002F08B5002E08B40002307B
:1018D2003407840035080318350A85000008B6006D
:1018E2003608A600083096311F268C3121002F08B9
:1018F200B1002E08B000033030078400310803180D
:10190200310A85000008B2003208A4002F08B40092
:101912002E08B30004303307840034080318340A55
:1019220085000008B5003508A5002F08B7002E086D
:10193200B60005303607840037080318370A8500D9
:101942000008B8003808A6000C3096311F268C31EA
:1019520095312525080020006A080319B52C69086D
:101962003D0096002000EA01650866040319062D71
:1019720000306602083003196502031CC52C0830CA
:10198200B0000030B100C92C6608B1006508B00093
:101992003008FA007A08B20021004A0886004B0893
:1019A2008700230040088400410885002000320897
:1019B200FA0012001E00FA0BDA2C20003208FA009C
:1019C200FB017A08E5027B08E63B3208FA00FB01DC
:1019D2007A082300C0077B08C13D20006508660421
:1019E200031DFC2C08303206031DFC2C6E08031963
:1019F200FC2CEB01EB0A3208FA00FB017A08F60034
:101A02007B08F70096318F26080020006B08031927
:101A1200152D0030F600F70096318F268C3120000C
:101A2200EB019231C422080020006C08031D08005B
:101A32009231C42208003C302100990423008C0119
:101A42008D018E0122009D0121008C1222008C1238
:101A520021000C1222000C1221000E128E120E1303
:101A620022000E168E120E139231FA228D3102309E
:101A72002100AC008630AB009930AA00AA0B3F2DA2
:101A8200AB0B3F2DAC0B3F2D9731C5278D3102306B
:101A92002100AC008630AB009930AA00AA0B4F2D72
:101AA200AB0B4F2DAC0B4F2D943137248D310230BF
:101AB2002100AA002A08A2002030AB002B08A300B4
:101AC200C2309631E6268D31230042082100AA0059
:101AD2002A08A400230043082100AB002B08A5001C
:101AE200230044082100AC002C08A60008309631DF
:101AF2001F268D31230045082100AA002A08A400D0
:101B0200230046082100AB002B08A500230047084C
:101B12002100AC002C08A6000C3096311F260800CC
:101B22002100A8000730A4002408A000280893314F
:101B3200A7238D31063EE23E860001308700011D5B
:101B4200A42D0130A52D00302100A5002508A700F5
:101B520027080319D42D0730A4002408A000280860
:101B62009331A7238D31043EE23E86000130870087
:101B720001082100A5002835A6000130A635FF3E48
:101B8200031DBF2D2635013E203E86008701250814
:101B92008100C830A4002835A5000130A535FF3EDC
:101BA200031DCF2DFB2D0730A4002408A000280818
:101BB2009331A7238D31043EE23E86000130870037
:101BC20001082100A5002835A6000130A635FF3EF8
:101BD200031DE72D2635013E203E8600870125089C
:101BE20081008830A4002835A5000130A535FF3ECC
:101BF200031DF72D2535203E86008701240881002C
:101C02000430A4000730A5002508A000280893315D
:101C1200A723063EE23E8600013087002100240809
:101C2200810608003D00101C1B2E8B3178238E315B
:101C32003D001010901E522E01302000E1000030B5
:101C4200E2006208803ADB0080305B02031D2B2E2B
:101C5200023061020318502E98302000DB000E3053
:101C6200DC0061085B07DD0062085C3DDE005D08A8
:101C7200DF005E08E0005F08860060088700011050
:101C82000130E1070030E23D6208803ADB0080303B
:101C92005B02031D4E2E02306102031C2D2E3D00FD
:101CA20090129019921DF02E0F0C2000DB00DB0C1D
:101CB2005B0C0F39003A031D832E3D000F19832E52
:101CC2002000200C890C0F39DB005B08E3000D308B
:101CD2006306031D702E97318A278E317F2E0930BD
:101CE2002000630603197F2E6303031D7C2E8A31B5
:101CF20063228E317F2E9231CE228E319231B322E7
:101D02008E31EE2E3D000F0C2000DB00DB0C5B0C55
:101D12000F39003A031D942E3D000F1D942E8C3175
:101D2200AC248E31EE2E3D000F0C2000DB00DB0CCC
:101D32005B0C0F39003A0319EE2E3D000F0C200008
:101D4200DB00DB0C5B0C0F39DC0002305C02031899
:101D5200EE2E3D000F1DCE2E07302000DB005B086B
:101D6200F0003D000F0C2000DC00DC0C5C0C0F3995
:101D7200933152238E31063EE23E860001308700C7
:101D8200811CEE2E3D000F0C2000DB00DB0C5B0CF7
:101D92000F39883104208E31EE2E07302000DB000F
:101DA2005B08F0003D000F0C2000DC00DC0C5C0C3A
:101DB2000F39933152238E31063EE23E86000130C6
:101DC2008700011CEE2E3D000F0C2000DB00DB0C17
:101DD2005B0C0F3995315F258E313D009011101B40
:101DE20010132000121D0800121108003D000E17EA
:101DF2002100CC01FC0102307C0203181B2F0430AD
:101E02002000BA000730BB003B08F0007C08933189
:101E120052238E31063EE23E8600013087002000CA
:101E22003A0881000130BA003A08FC0702307C020D
:101E3200031C002F2030F0000030F1000030F200CF
:101E4200F3001030F4000030F500943107248E3195
:101E520021004908F7004808F60089317D218E31BA
:101E620077082000A3007608A2000830A100803085
:101E7200BA003A08A00021004B08F7004A08F60011
:101E820089317D218E3177082000A7007608A600CF
:101E92000830BA003A08A500A401FC01FC0A02308D
:101EA2007C020318FD2F0730BA003A08F0007C08C4
:101EB200933152238E31E23E860001308700403F4B
:101EC200F600413FF70089317D218E317C352000BB
:101ED200BB000130BB35FF3E031D6B2F3B35023E7D
:101EE200203E860087017608C03F7708C13F073051
:101EF200BA003A08F0007C08933152238E31043E36
:101F0200E23E86000130870001082000BB007C35DC
:101F1200BC000130BC35FF3E031D8B2F3C35013E1A
:101F2200203E860087013B0881008830BA007C355C
:101F3200BB000130BB35FF3E031D9B2F3B35203ECE
:101F4200860087013A0881000730BA003A08F0009B
:101F52007C08933152238E31023EE23E86000130EC
:101F62008700403FF600413FF70089317D218E31E5
:101F72007C352000BB000130BB35FF3E031DBD2F69
:101F82003B35063E203E860087017608C03F770833
:101F9200C13F0730BA003A08F0007C08933152235F
:101FA2008E31053EE23E86000130870001082000A6
:101FB200BB007C35BC000130BC35FF3E031DDD2F6C
:101FC2003C35053E203E860087013B0881007C357A
:101FD200BA000130BA35FF3E031DEB2F3A35043EFD
:101FE200203E8600870181010130BA003A08FC07D1
:0E1FF20002307C02031C542F3D000E13080029
:1025040022000C1295312525080022000C16953165
:102514002525080022008C16953125250800220067
:102524008C129531252508000830F0007008200031
:10253400A500A401080042302100A000A00BA02A9D
:1025440000000800803420348834203400346C3493
:1025540085342000A401A501C830F0007008A4004F
:10256400080008302000A1008030F0007008A000AE
:102574000800230055309600AA30960095140000F8
:10258400000008002300C001C1012000ED01E501A5
:10259400E601E701E80108000830F00070082000B7
:1025A400A5008430F0007008A400080022008D16F5
:1025B40092319D22923122008D1292319D22080087
:1025C400FE0012001E000130FE020030FF3B7F08B7
:1025D4007E0403190034E32A6400800101310130D0
:1025E400FE020030FF3B7F087E0403190034EF2A0B
:1025F40022000D178D1721000D138D138D1222004B
:102604008D1221000D168E17080020302100A7001E
:102614002708A400A130A8002808A500043095319B
:102624007D250800003400340034003400340034C4
:10263400003490342034D0342034403440340034D6
:10264400F5000730F4007408F00075089331522344
:10265400063EE23E86000130870001080239080088
:1026640021002F08A7002E08A6000630B00030086D
:10267400A80001308A31BC22933195312525080008
:1026840021002F08A7002E08A6000630B00030084D
:10269400A80003308A31BC229331953125250800E6
:1026A400F200F301721C5A2B7008F1007108F30751
:1026B4000310F00D0310F20C7208031D542B730861
:1026C400080022000E169C302100AA00D730A90071
:1026D400A90B6A2BAA0B6A2B22008E120E139531BA
:1026E4002525080022008E169C302100AA00D73030
:1026F400A900A90B7B2BAA0B7B2B22000E120E1315
:1027040095312525080022000E179C302100AA00CF
:10271400D730A900A90B8C2BAA0B8C2B22000E12EC
:102724008E129531252508002100A5000730A4004C
:102734002408A00025089331A723063EE23E860024
:10274400013087000108023908002100A300A2011A
:10275400231CB02B2008A1002108A2070310A00D00
:102764000310A30C2308031DAA2B22080800210030
:10277400A1002135A0000130A035FF3E031DBE2B72
:102784002035043E203E86008701010D010D0139EC
:1027940008002100A1002135A0000130A035FF3E32
:1027A400031DD02B2035203E860087010310811F96
:1027B40003140030093D08002100A7000730A600DB
:1027C4002608A00027089331A723023EE23E860094
:1027D40001308700403F2100A400413FA5000800CC
:1027E40021002108230092002100200823009100E9
:1027F4001513151400000000230014082100A10083
:10280400230013082100A00008007108F7007008D5
:10281400F6000130F4020030F53B740A0319750A1E
:10282400031908007608860077088700720881007B
:102834000130F6070030F73D0B2C2100A2000830D0
:10284400A1002108A300A21F2A2C22000D162C2C63
:1028540022000D129231D822943103102100A20DCE
:102864000130A30203190800252C20302100A80000
:102874002808A400A030A9002908A5000430953137
:102884007D25943180302100A8002808A400A501EA
:10289400A601003096311F26080021002108A70058
:1028A4002008A6000130A4020030A53B240A031925
:1028B400250A03190800260886002708870022082D
:1028C40081000130A6070030A73D542CF900790897
:1028D4000319080002307902031808000730F800D1
:1028E4007808F0007908933152239431063EE23E91
:1028F400860001308700811479088831042008009B
:10290400F500750803190800023075020318080061
:102914000730F4007408F0007508933152239431A1
:10292400063EE23E860001308700011475089531A9
:102934005F250800F401F501701CA42C7208F4074B
:102944007308F53D0130F235F30D890BA52C0130E8
:10295400F136F00C890BAA2C70087104031D9E2C0F
:102964007508F1007408F000080000308B1B01307A
:102974002100A2008B1321082300920021002008CB
:10298400230091001513151615159231BB229431AD
:102994002300151121002208031908008B170800D1
:1029A40021002108A5002008A40024088600250889
:1029B400870022088400230885000008C03F890896
:1029C400031908000130A4070030A53D0130A20717
:1029D4000030A33DD72C2100A3010830A100210819
:1029E400A2009231D822943103102100A30DFE30AD
:1029F400A1002108A30520000D1E022D210023148F
:102A040001302100A202031DF32C23080800210039
:102A1400A401A501201C122D2208A4072308A53D0A
:102A24000130A235A30D890B132D0130A136A00C62
:102A3400890B182D20082104031D0C2D2508A10045
:102A44002408A000080055302100A7008630A80003
:102A54004208A1004108A0002808A3002708A200FA
:102A64009431D224953121002808A1002708A00020
:102A740095319C2521002008A6002608C5000800E1
:102A840058302100A7008630A8004208A100410860
:102A9400A0002808A3002708A2009431D22495316D
:102AA40021002808A1002708A00095319C252100B9
:102AB4002008A6002608C5000800F2007235F000C0
:102AC4000130F035FF3E031D632D7035013E203E7D
:102AD4008600870181018430F0007235F1000130F5
:102AE400F135FF3E031D722D7135203E86008701AE
:102AF4007008810008002100A60022000D13923105
:102B04009D22953121000D122608203E94311F2468
:102B140095312100240894311F2495312100250882
:102B240094311F24953121000D1622000D17923186
:102B34009D22080021002108A5002008A4002408E3
:102B440084002508850012000319AD2D0130A40767
:102B54000030A53DA12D2009A2002109A300A20A4D
:102B64000319A30A24082207A0002508233DA10075
:102B740008002100A201A20A2030A9002908A3000C
:102B8400C2309631E626953106302100A900290885
:102B9400C5004108860042088700C2308400013025
:102BA400850021004508A90012001E00A90BD62D9E
:102BB400080002302100A9002908A2002030AA0040
:102BC4002A08A300C2309631E6269531063021004A
:102BD400A9002908C5004108860042088700C230C0
:102BE40084000130850021004508A90012001E0060
:102BF400A90BF82D080003302100A9002908A20020
:102C04002030AA002A08A300C2309631E626953166
:102C140006302100A9002908C500410886004208A1
:102C24008700C23084000130850021004508A900D6
:102C340012001E00A90B1A2E08002100A700220072
:102C44000D1392319D22963121000D122708403E2A
:102C540094311F2496312100240894311F24963185
:102C64002100250894311F2496312100260894312F
:102C74001F24963121000D1622000D1792319D223A
:102C840008002100A6000730A5002508A00026089A
:102C94009331A7239631E23E86000130870021005C
:102CA400240884008501403F803F413F813F263511
:102CB400A5000130A535FF3E031D5C2E2535013EE0
:102CC400203E860087010108080000308B1B01307C
:102CD4002100A5008B132108230092002100200865
:102CE40023009100210023082300940021002208DE
:102CF400230093002100240C2300031C95120318C5
:102D040095161513151215159231BB229631210013
:102D14002508031908008B1708000030933122237B
:102D24009631003A031D08002100CC1D9B2E013072
:102D34009C2E0030F8007808F9002000A4017908DE
:102D44000319AA2E7608F8007808A500C830AF2E1B
:102D54007608F8007808A5008830F8007808A40000
:102D64000830F80078082100CC0608002100290862
:102D740084002A0885000008AB002B08A4002A0858
:102D8400AD002908AC0001302C0784002D0803187D
:102D94002D0A85000008AE002E08A5002A08B00000
:102DA4002908AF0002302F07840030080318300AC6
:102DB40085000008B1003108A600003096311F26B6
:102DC40096319531252508002100A8002208A40089
:102DD400A5010530A435A50D890BEC2E2408803EF1
:102DE400A6001F30253DA700213023020318080048
:102DF40004302202031808002308031908002708D6
:102E0400A1002608A0009331F22396312100200866
:102E1400A4002808860001308700240881000130BE
:102E2400A6070030A73D0130A4002408A8070130FC
:102E3400A302FE2E2100A80022000D1392319D2230
:102E4400973121000D122808C03E94311F24973178
:102E540021000D1692319D2297319431ED24973142
:102E64002100A700240886008701270881009431E7
:102E7400ED2497312100A700250886008701270843
:102E840081009431ED2497312100A70026088600A3
:102E940087012708810022000D1792319D22080026
:102EA400A930883133209731003A03196D2F063049
:102EB4002100A8002808C5004108860042088700B0
:102EC400A9308400850121004508A80012001E00D5
:102ED400A80B682F080050302100AF008630B000E6
:102EE4004208A1004108A0003008A3002F08A20056
:102EF4009431D224973121003008A1002F08A0007A
:102F040095319C2521002008A8002808C500080048
:102F1400210049082000DA00210048082000D900D7
:102F2400590886005A0887000030811B0130EC00E4
:102F34009231962297312000A41FA52F0830FD005E
:102F44007D08A500A401650866040319AC2F92311D
:102F5400C42297312000590886005A088700010EC0
:102F6400890C0339003A031DC02F80314F2097315B
:102F7400FD007D082000D800D81FC22F9231CE2238
:102F84003D000E12080022000D1392319D2297314C
:102F940022008D1605302100A2001B30A100A10BD8
:102FA400D12FA20BD12F003222008D1292319D22FB
:102FB400973122008D1609302100A200E130A100D2
:102FC400A10BE22FA20BE22F22008D1292319D223F
:102FD400973122008D160F302100A2001130A1007C
:102FE400A10BF22FA20BF22F22008D1292319D22FF
:0C2FF400973122000D1792319D22080039
:020000040001F9
:04000E00A4CFCFDFCD
:00000001FF
